:020000040800F2
:1000000000500020950A0008C5080008C70800082D
:10001000C9080008CB080008CD080008000000004F
:10002000000000000000000000000000CF080008F1
:10003000D108000800000000D3080008D508000817
:10004000DD0A0008DD0A0008DD0A0008DD0A0008F4
:10005000DD0A0008DD0A0008DD0A0008DD0A0008E4
:10006000DD0A0008DD0A0008DD0A0008DD0A0008D4
:10007000DD0A0008DD0A0008DD0A0008DD0A0008C4
:10008000DD0A0008DD0A0008DD0A0008DD0A0008B4
:10009000DD0A0008DD0A0008DD0A0008DD0A0008A4
:1000A000DD0A0008DD0A0008DD0A0008DD08000896
:1000B000DD0A0008DD0A0008DD0A0008DD0A000884
:1000C000DD0A0008DD0A0008DD0A0008DD0A000874
:1000D000DD0A0008DD0A0008DD0A0008DD0A000864
:1000E000DD0A0008DD0A0008DD0A00080000000043
:1000F0000000000000000000000000000000000000
:0C01000000000000000000005FF808F1A3
:10010C0010B5054C237833B9044B13B10448AFF345
:10011C0000800123237010BD40040020000000006B
:10012C008022000808B5034B1BB103490348AFF309
:10013C00008008BD0000000044040020802200085C
:10014C002DE9F04188B0002404940594069407949A
:10015C00304B9A6942F010029A619A6902F01002CF
:10016C000092009A9A6942F020029A619A6902F010
:10017C0020020192019A9A6942F004029A619A69EA
:10018C0002F004020292029A9A6942F008029A6101
:10019C009B6903F008030393039BDFF87C80012227
:1001AC004FF40051404600F0DCFF1C4E0122A02110
:1001BC00304600F0D6FF22464021304600F0D1FFF9
:1001CC004FF40053049301250595069403270797D4
:1001DC0004A9404600F0ACFEA023049305950694B8
:1001EC00079704A9304600F0A3FE4023049305951D
:1001FC0006940223079304A9304600F099FEE023ED
:10020C0004930594069504A9054800F091FE08B0E6
:10021C00BDE8F081001002400010014000080140D0
:10022C00000C0140024BD3F8003C0360704700BF48
:10023C0000F0000870B586B0054600F05BFD0024A8
:10024C000294094E049601230593019401A902A876
:10025C0000F01CFE2A4623463146022000F0A2FD87
:10026C0000F062FD06B070BD00FC000800B583B064
:10027C0000F074FC4FF0E0214A6901328B69D31A0B
:10028C0001934FF47A71019B01FB03F3B3FBF2F37F
:10029C0001FB003003B05DF804FB0000024B196851
:1002AC00024A116018607047700400206C04002032
:1002BC0008B52021034800F04DFFC0F10100C0B289
:1002CC0008BD00BF000C014008B54021034800F0F8
:1002DC0041FFC0F10100C0B208BD00BF000C0140DD
:1002EC0008B58021034800F035FFC0F10100C0B211
:1002FC0008BD00BF000C0140054B1B686FF00202EB
:10030C001A616FF004021A6100225A62704700BF32
:10031C008004002070B5054601241B4B1C701B4E3D
:10032C0022468021304600F01CFF22462021304618
:10033C0000F017FF164B1D60164B1C70164B1C70F3
:10034C00022000F011FCFFF7D7FF1448036840F2BD
:10035C00F1629A62002101F049FD02E0012000F0F7
:10036C0003FC0D4B1B78002BF8D1022000F0FCFB9A
:10037C000024054B1C7022468021044800F0F1FE3D
:10038C00044B1C7070BD00BF5E04002000080140CF
:10039C00640400205D040020690400208004002017
:1003AC0070B505460024184B1C70184E224680214F
:1003BC00304600F0D6FE01222021304600F0D1FE5E
:1003CC00134B1D600123134A1370134A1370022040
:1003DC0000F0CAFBFFF790FF1048036840F2F1628F
:1003EC009A62214601F002FD02E0012000F0BCFB04
:1003FC00094B1B78002BF8D1022000F0B5FB054B04
:10040C0000221A7070BD00BF5E040020000801407D
:10041C00640400205D040020690400208004002096
:10042C0038B50124194B1C70194D22464021284621
:10043C0000F097FE22462021284600F092FE154B34
:10044C0040F216221A60144B1C70144B1C700220C4
:10045C0000F08AFBFFF750FF1148036840F2F1628D
:10046C009A62042101F0C2FC02E0012000F07CFB46
:10047C000A4B1B78002BF8D1022000F075FB0023EF
:10048C00024A1370044A137038BD00BF7C0400206C
:10049C0000080140640400205D0400206904002071
:1004AC008004002038B50124194B1C70194D002212
:1004BC004021284600F055FE22462021284600F017
:1004CC0050FE154B40F20B121A60144B1C70144B5F
:1004DC001C70022000F048FBFFF70EFF1148036868
:1004EC0040F2F1629A62042101F080FC02E00120EA
:1004FC0000F03AFB0A4B1B78002BF8D1022000F0DD
:10050C0033FB0023024A1370044A137038BD00BF3A
:10051C007C04002000080140640400205D040020DD
:10052C0069040020800400202D4B1B783BB12D4B1F
:10053C001B78002B2DD02C4A1368013313602B4BE6
:10054C001B78002B4AD010B5294A1368013313606D
:10055C00284A12685108B2F5967F00D396218B4237
:10056C0023D225490978C9B124490968244850F88F
:10057C002300886293420BD31F4B1B784BB304218F
:10058C001E4801F0C5FC0023194A13601D4A137064
:10059C0010BD154A1368013B1360D0E71749096871
:1005AC00194850F823008862E4E7D01A8142E1D957
:1005BC001149097831B111490968114C54F82000DE
:1005CC008862D7E70D4909680F4C54F820008862FF
:1005DC00D0E70021094801F09BFCD4E7704700BF2D
:1005EC005C0400205E040020600400205D040020F8
:1005FC0074040020640400207C040020800400208B
:10060C00F0240008690400209822000872B6FEE766
:10061C0000B591B02822002106A801F069FD002345
:10062C0001930293039304930593012206924FF4D2
:10063C00803307930A9202220D920E934FF4E0132B
:10064C000F9306A800F0AAFD80B90F230193022195
:10065C000291002303934FF480620492059301A846
:10066C0000F0CEFF20B911B05DF804FBFFF7CEFF10
:10067C00FFF7CCFF70B582B000F052FAFFF7C8FF5D
:10068C00FFF75EFD00F080F90FE06E4B1B78002B3E
:10069C002ED1FFF719FE00285DD06B4B1B78002B79
:1006AC003DD0FFF71DFE002869D1FFF701FE0028A1
:1006BC00EBD0644B1B78002BEBD10124614B1C70ED
:1006CC00624B1C70624B1C70624D22468021284686
:1006DC0000F047FD22462021284600F042FD5E48EE
:1006EC00036840F2F1629A62002101F07FFBD0E7CF
:1006FC000024544B1C702146574801F009FC012082
:10070C0000F032FA514B1C70544B01221A70504BB2
:10071C001C70224680214F4800F023FDB9E70125CB
:10072C00494B1D70494B1D700024494B1C70494EA0
:10073C0022468021304600F014FD2A462021304606
:10074C0000F00FFD4448036840F2F1629A622146C2
:10075C0001F04CFBA5E73C4B1B78002BA1D00024EF
:10076C00394B1C7021463C4801F0D2FB012000F0B3
:10077C00FBF9364B1C70394B01221A7091E7FFF7CD
:10078C0075FD374B1B68C01A364B98428DD9334BCD
:10079C001B785BB1344B1868FFF780FD2F4B0022A0
:1007AC001A70FFF763FD2E4B18607EE72F4B1C6809
:1007BC002F4B1B68E01A0BD4002818DDFFF73AFD0D
:1007CC0000232B4A1360294A1360274A1360E8E779
:1007DC001C1B2046FFF72EFD2046FFF79BFD002338
:1007EC00234A1360214A13601F4A1360D9E7002380
:1007FC00019301A8FFF716FD0198FFF7D1FD4FF407
:10080C00967000F0B1F90198FFF784FDFFF74AFEEE
:10081C000198FFF7C5FD4FF4967000F0A5F901980B
:10082C00FFF778FDFFF7FCFD0198FFF7B9FD4FF4DA
:10083C00967000F099F90198FFF76CFDFFF732FE06
:10084C00AFE700BF7D0400205F0400205C040020A3
:10085C005E04002000080140800400206804002091
:10086C0078040020E0930400600400207004002051
:10087C006C04002082B00E4B9A6942F001029A611E
:10088C009A6902F001020092009ADA6942F08052F1
:10089C00DA61DB6903F080530193019B054A5368CD
:1008AC0023F0E06343F00073536002B0704700BF65
:1008BC000010024000000140FEE7FEE7FEE7FEE705
:1008CC00FEE770477047704708B500F03BF908BD6C
:1008DC0008B5024801F000F808BD00BF80040020F4
:1008EC007047000002680E4B9A4200D0704700B56A
:1008FC0083B003F564439A6942F400629A619B6980
:10090C0003F400630193019B002211461B2000F0AD
:10091C0051F91B2000F086F903B05DF804FB00BF11
:10092C00002C014030B587B000230293039304934D
:10093C0005930268124B9A4201D007B030BD03F503
:10094C0064439A6942F004029A619B6903F00403C0
:10095C000193019B4FF480730293022403940323AD
:10096C000593084D02A9284600F0E2FA4FF40073F3
:10097C0002930394059402A9284600F0D9FADCE707
:10098C00002C01400008014010B596B000241294D0
:10099C001394149415941094119409940A940B9430
:1009AC000C940D940E940F942022214601A801F072
:1009BC009FFB3348334B036040F29A2343608460BF
:1009CC006323C360046144618023836101F07CF87C
:1009DC0000283FD14FF48053129312A9284801F0FC
:1009EC0077F9002839D1264801F09AF8002837D138
:1009FC0000231093119310A9214801F0F3FA002859
:100A0C0031D16023099332230A9300220B920C926A
:100A1C000D920E920F9209A9194801F0DFF828BB2C
:100A2C00042209A9164801F0D9F810BB0023019340
:100A3C0002930393049305934FF400520692089388
:100A4C0001A90F4801F004FBB0B90D48FFF76AFF8C
:100A5C0016B010BDFFF7DAFDBCE7FFF7D7FDC2E714
:100A6C00FFF7D4FDC4E7FFF7D1FDCAE7FFF7CEFDD2
:100A7C00D6E7FFF7CBFDD9E7FFF7C8FDE5E700BFE9
:100A8C0080040020002C0140FFF72AFF0B480C4982
:100A9C000C4A002302E0D458C4500433C4188C42CE
:100AAC00F9D3094A094C002301E013600432A24235
:100ABC00FBD301F0F9FAFFF7DDFD704700000020D1
:100ACC003C0400207C27000840040020F404002093
:100ADC00FEE7000010B504460E4B18784FF47A73FD
:100AEC00B3FBF0F30C4A1068B0FBF3F000F0A8F87D
:100AFC0068B90F2C01D901200AE0002221464FF0E1
:100B0C00FF3000F057F8054B1C60002000E001207E
:100B1C0010BD00BF040000200000002008000020D1
:100B2C0008B5074A136843F010031360032000F064
:100B3C002FF80020FFF7CEFFFFF79CFE002008BD2A
:100B4C0000200240034A1168034B1B780B441360CE
:100B5C00704700BFC804002004000020014B186837
:100B6C00704700BFC804002038B50446FFF7F6FFF5
:100B7C000546B4F1FF3F02D0044B1B781C44FFF731
:100B8C00EDFF401BA042FAD338BD00BF040000208B
:100B9C00074AD36823F4E0631B041B0C000200F427
:100BAC00E060034343F0BF6343F40033D36070470A
:100BBC0000ED00E000B5194BDB68C3F30223C3F171
:100BCC00070CBCF1040F28BF4FF0040C03F1040E0A
:100BDC00BEF1060F18D9033B4FF0FF3E0EFA0CFC8A
:100BEC0021EA0C0199400EFA03F322EA030319439C
:100BFC0000280BDB0901C9B200F1604000F561402F
:100C0C0080F800135DF804FB0023E5E700F00F000B
:100C1C000901C9B2024B1954F4E700BF00ED00E022
:100C2C0014ED00E0002807DB00F01F02400901234F
:100C3C009340024A42F82030704700BF00E100E0C8
:100C4C000138B0F1807F0BD24FF0E0235861054A98
:100C5C00F02182F823100020986107221A61704756
:100C6C000120704700ED00E0044B0022DA61044AD9
:100C7C00136943F00103136101807047D004002015
:100C8C0000200240194BDB6813F0100305D0184A02
:100C9C00D36943F00203D3611023144AD26812F0D3
:100CAC00040F06D01249CA6942F00102CA6143F02E
:100CBC0004030E4AD26912F0010F09D00C49CA691B
:100CCC0042F00402CA610949CA6922F00102CA61F0
:100CDC0040F20112934202D0044AD3607047034A97
:100CEC00D36923F00103D361704700BF0020024099
:100CFC00D00400200A4B1B6913F0800F0BD0084B5B
:100D0C00084A5A6002F188325A601B6913F0800F4E
:100D1C0003D100207047002070470120704700BFAE
:100D2C000020024023016745034A136943F0800306
:100D3C0013610020704700BF0020024038B5044604
:100D4C00FFF70CFF0546164BDB6813F0010F0AD0BA
:100D5C00B4F1FF3FF7D024B1FFF700FF401BA042D6
:100D6C00F1D903201BE00E4BDB6813F0200F02D0EF
:100D7C000B4B2022DA600A4BDB6813F0100F0BD1FF
:100D8C00074BDB6913F0010F06D1054BDB6813F041
:100D9C00040F01D1002002E0FFF774FF012038BDE1
:100DAC00002002402DE9F8431E46244B1B7E012BEC
:100DBC0041D004460F469046204B01221A764CF245
:100DCC005030FFF7BBFF034678BB012C08D0022C38
:100DDC0003D04FF004091C4607E04FF00209FAE774
:100DEC004FF00109F7E70134E4B24C451DD2210163
:100DFC00C1F12002A1F1200328FA01F106FA02F256
:100E0C00114326FA03F3194389B207EB4400FFF7A9
:100E1C002BFF4CF25030FFF791FF094B1D6925F069
:100E2C0001051D6103460028DDD0044A002111761E
:100E3C001846BDE8F8830223FAE700BFD00400206F
:100E4C0000200240064B0022DA61064B1A6942F080
:100E5C0004021A611A6942F040021A61704700BF1D
:100E6C00D004002000200240064B0022DA61064B21
:100E7C001A6942F002021A6158611A6942F0400282
:100E8C001A617047D004002000200240264B1B7EC4
:100E9C00012B46D070B505460E46234B01221A761F
:100EAC000368022B20D04CF25030FFF747FF90BB69
:100EBC004FF0FF333360AC680121EA68AB6803EB99
:100ECC008223A34228D92046FFF7CEFF4CF25030A4
:100EDC00FFF734FF154A136923F00203136101462F
:100EEC00B8B904F58064E8E74CF25030FFF726FF00
:100EFC0008B1012110E00120FFF7A4FF4CF25030A3
:100F0C00FFF71CFF0146094A136923F00403136120
:100F1C0002E0346000E00121034B00221A760846FF
:100F2C0070BD022108467047D0040020002002400A
:100F3C0070B582B00024A446A6E0804DAA4210D021
:100F4C0007D97F4DAA420CD005F58035AA4208D0AE
:100F5C0013E0A5F58015AA4203D005F57025AA4229
:100F6C0007D18A68002A58D0012A51D0436108243D
:100F7C0003E0A5F58015AA42F3D0BEF1FF0F4ED8C1
:100F8C000646BEF1FF0F4CD84FEA8C0233680F2592
:100F9C00954023EA050304FA02F2134333604B68CD
:100FAC0013F0805F6ED0674B9A6942F001029A6130
:100FBC009B6903F001030193019B4FEA9C02951C72
:100FCC00614B53F825600CF003039D000F23AB40DD
:100FDC0026EA03065D4B984229D003F580639842BC
:100FEC0000F08E8003F58063984200F08B8003F54F
:100FFC008063984219D004231AE0CC68BDE7CC6812
:10100C000434BAE7CC680834B7E7CC680C34B4E7DE
:10101C0003610824B1E70024AFE70424ADE7061D03
:10102C00AFE7ACF108029200B0E7032300E0002325
:10103C00AB4033430232444D45F822304B6813F435
:10104C00801F61D0424A936843EA0E0393604B6859
:10105C0013F4001F5ED03E4AD36843EA0E03D360FC
:10106C004B6813F4003F5BD0394A536843EA0E03D4
:10107C0053604B6813F4803F58D0354A136843EAE9
:10108C000E0313600CF1010C0A6832FA0CF353D006
:10109C00012303FA0CF302EA030E33EA0202F1D144
:1010AC004A68122A3FF649AF122A3FF666AF01A5ED
:1010BC0055F822F06F0F00080710000811100008F7
:1010CC0023100008870F0008870F0008870F0008FF
:1010DC00870F0008870F0008870F0008870F00088C
:1010EC00870F0008870F0008870F0008870F00087C
:1010FC00870F0008870F00080B1000081710000856
:10110C00012395E7022393E7114A936823EA0E0320
:10111C0093609CE70E4AD36823EA0E03D3609FE7E3
:10112C000B4A536823EA0E035360A2E7084A13687C
:10113C0023EA0E031360A5E702B070BD0000221075
:10114C000000311000100240000001400008014076
:10115C00000401408368194201D00120704700202F
:10116C0070470AB1016170470904016170470000C2
:10117C0082B0084B1B68084AA2FB03235B0A00FBE6
:10118C0003F3019300BF019B5A1E0192002BF9D16E
:10119C0002B0704700000020D34D6210002800F010
:1011AC00F18170B582B00446036813F0010F2CD0A6
:1011BC00994B5B6803F00C03042B1DD0964B5B68BA
:1011CC0003F00C03082B12D06368B3F5803F41D0B9
:1011DC00002B55D103F1804303F504331A6822F434
:1011EC0080321A601A6822F480221A6037E08A4B27
:1011FC005B6813F4803FE7D0874B1B6813F4003F08
:10120C0003D06368002B00F0BF81236813F0020F3A
:10121C0075D0814B5B6813F00C0F5FD07E4B5B6815
:10122C0003F00C03082B54D02369002B00F08A80A8
:10123C007A4B01221A60FFF791FC0546764B1B682E
:10124C0013F0020F75D1FFF789FC401B0228F5D96A
:10125C0003209EE1704A136843F480331360636883
:10126C0043B3FFF77BFC05466B4B1B6813F4003F45
:10127C00CBD1FFF773FC401B6428F5D9032088E120
:10128C00B3F5A02F09D0644B1A6822F480321A608F
:10129C001A6822F480221A60E1E703F18043A3F577
:1012AC003C331A6842F480221A601A6842F4803285
:1012BC001A60D4E7FFF752FC0546574B1B6813F432
:1012CC00003FA2D0FFF74AFC401B6428F5D903204D
:1012DC005FE1514B5B6813F4803FA5D14E4B1B680B
:1012EC0013F0020F03D02369012B40F04F814A4ABF
:1012FC00136823F0F803616943EAC10313602368A0
:10130C0013F0080F33D0A369002B5CD0434B0122A0
:10131C00C3F88024FFF722FC05463F4B5B6A13F0B1
:10132C00020F21D1FFF71AFC401B0228F5D903202C
:10133C002FE1394A136823F0F803616943EAC103CA
:10134C001360DCE7354B00221A60FFF707FC0546FB
:10135C00314B1B6813F0020FD1D0FFF7FFFB401B82
:10136C000228F5D9032014E10120FFF701FF2368BF
:10137C0013F0040F00F09680274BDB6913F0805FAD
:10138C0034D1254BDA6942F08052DA61DB6903F023
:10139C0080530193019B0125214B1B6813F4807F23
:1013AC0026D0E368012B3DD0002B53D103F18043B1
:1013BC0003F504331A6A22F001021A621A6A22F047
:1013CC0004021A6233E0154B0022C3F88024FFF7A5
:1013DC00C5FB0546104B5B6A13F0020FC7D0FFF735
:1013EC00BDFB401B0228F5D90320D2E00025D3E732
:1013FC000B4A136843F480731360FFF7AFFB064688
:10140C00074B1B6813F4807FCBD1FFF7A7FB801B26
:10141C006428F5D90320BCE00010024000004242D1
:10142C00007000405F4A136A43F001031362E368E3
:10143C0033B3FFF793FB06465A4B1B6A13F0020FAC
:10144C002FD1FFF78BFB801B41F288339842F3D9E5
:10145C0003209EE0052B09D0524B1A6A22F00102A0
:10146C001A621A6A22F004021A62E0E74D4B1A6AF9
:10147C0042F004021A621A6A42F001021A62D6E7BA
:10148C00FFF76CFB0646474B1B6A13F0020F08D0A4
:10149C00FFF764FB801B41F288339842F3D9032099
:1014AC0077E0E5B9E369002B72D03E4A526802F04E
:1014BC000C02082A56D0022B17D03B4B00221A667E
:1014CC00FFF74CFB0446374B1B6813F0007F47D0EB
:1014DC00FFF744FB001B0228F5D9032059E0314AE1
:1014EC00D36923F08053D361DCE72F4B00221A66BB
:1014FC00FFF734FB05462B4B1B6813F0007F06D01F
:10150C00FFF72CFB401B0228F5D9032041E0236A8E
:10151C00B3F5803F1AD023494B6823F47413226A25
:10152C00606A024313434B601F4B01221A66FFF79C
:10153C0015FB04461B4B1B6813F0007F0ED1FFF705
:10154C000DFB001B0228F5D9032022E0154A536835
:10155C0023F40033A1680B435360DCE7002018E050
:10156C00002016E0012B16D00E4B5B6803F4803183
:10157C00226A914211D103F47013626A93420ED124
:10158C00002006E001207047012002E0012000E06D
:10159C00002002B070BD0120FBE70120F9E701201B
:1015AC00F7E700BF00100240000042420F4B5B689F
:1015BC0003F00C02082A01D00D487047C3F3834294
:1015CC000C49885C13F4803F0BD0084B5B68C3F369
:1015DC004043094AD35C064A02FB00F0B0FBF3F02F
:1015EC007047064B03FB00F0704700BF0010024031
:1015FC0000127A00582700086827000800093D00EF
:10160C00002800F0A08070B50D460446524B1B68B4
:10161C0003F007038B420BD24F4A136823F00703E6
:10162C000B431360136803F007038B4240F08D806B
:10163C00236813F0020F17D013F0040F04D0474A9D
:10164C00536843F4E0635360236813F0080F04D02D
:10165C00424A536843F460535360404A536823F042
:10166C00F003A1680B435360236813F0010F31D0D2
:10167C006368012B20D0022B25D0384A126812F057
:10168C00020F64D035494A6822F0030213434B60C1
:10169C00FFF764FA0646314B5B6803F00C03626893
:1016AC00B3EB820F16D0FFF759FA801B41F2883347
:1016BC009842F0D9032045E0284A126812F4003F02
:1016CC00E0D101203EE0254A126812F0007FD9D10A
:1016DC00012037E0204B1B6803F00703AB420AD90B
:1016EC001D4A136823F007032B431360136803F0A0
:1016FC000703AB422DD1236813F0040F06D0174A11
:10170C00536823F4E063E1680B435360236813F0E0
:10171C00080F07D0114A536823F46053216943EA38
:10172C00C1035360FFF742FF0C4B5B68C3F3031319
:10173C000B4AD35CD8400B4B18600B4B1868FFF767
:10174C00C9F9002070BD012070470120FAE7012083
:10175C00F8E70120F6E700BF00200240001002402D
:10176C0048270008000000200800002070B4036A1D
:10177C00026A22F0010202624668826922F0730258
:10178C000C6844EA020523F002028B6813430D4CEB
:10179C00A04209D00B4CA0420DD0466085614A682E
:1017AC004263036270BC704723F00803CA6813439A
:1017BC0023F00403EEE726F440764A6932438E693F
:1017CC001643EAE7002C014030B4036A026A22F4A3
:1017DC00807202624568C26922F073020C6822436F
:1017EC0023F400738C6843EA04230F4CA04209D005
:1017FC000D4CA0420ED04560C2614A68C2630362C0
:10180C0030BC704723F40063CC6843EA042323F410
:10181C008063EDE725F440554C6945EA04158C6965
:10182C0045EA0415E7E700BF002C014030B4036A19
:10183C00026A22F4805202624468C26922F4E642CF
:10184C000D6842EA052223F400538D6843EA053300
:10185C00074DA84206D04460C2614A680264036224
:10186C0030BC704724F480444D6944EA8514F2E797
:10187C00002C014010B4036A046A24F001040462D1
:10188C00846924F0F00C4CEA021223F00A030B4397
:10189C008261036210BC704710B4036A046A24F0BE
:1018AC0010040462846924F4704C4CEA023223F074
:1018BC00A00343EA01138261036210BC7047836882
:1018CC0023F070030B4343F00703836070477047AA
:1018DC00704770477047704710B5044603681A6923
:1018EC0012F0020F11D0DA6812F0020F0DD06FF067
:1018FC0002021A610123037703689B6913F0030F3B
:10190C0070D0FFF7E7FF0023237723681A6912F0E2
:10191C00040F12D0DA6812F0040F0ED06FF004022C
:10192C001A610223237723689B6913F4407F5FD0ED
:10193C002046FFF7CFFF0023237723681A6912F0A4
:10194C00080F12D0DA6812F0080F0ED06FF00802F0
:10195C001A61042323772368DB6913F0030F4ED03D
:10196C002046FFF7B7FF0023237723681A6912F08C
:10197C00100F12D0DA6812F0100F0ED06FF01002A8
:10198C001A61082323772368DB6913F4407F3DD069
:10199C002046FFF79FFF0023237723681A6912F074
:1019AC00010F03D0DA6812F0010F36D123681A69DF
:1019BC0012F0800F03D0DA6812F0800F34D1236854
:1019CC001A6912F0400F03D0DA6812F0400F32D1CE
:1019DC0023681A6912F0200F03D0DA6812F0200F76
:1019EC0030D110BDFFF775FF2046FEF79DFD8AE74D
:1019FC002046FFF76EFF2046FEF796FD9BE720463C
:101A0C00FFF767FF2046FEF78FFDACE72046FFF798
:101A1C0060FF2046FEF788FDBDE76FF001021A61FA
:101A2C002046FFF755FFC1E76FF080021A61204690
:101A3C0000F038FBC3E76FF040021A612046FFF755
:101A4C004AFFC5E76FF020021A61204600F029FB1F
:101A5C00C7E7000003681B4A90420AD0B0F1804FE0
:101A6C0007D0A2F59432904203D002F580629042E6
:101A7C0003D123F070034A681343124A90420AD0F0
:101A8C00B0F1804F07D0A2F59432904203D002F50A
:101A9C008062904203D123F44073CA68134323F04D
:101AAC0080034A69134303608B68C3620B688362CB
:101ABC00044B984202D00123436170470B690363C6
:101ACC00F9E700BF002C014040B310B5044690F874
:101ADC003D30F3B1022384F83D30214651F8040B1C
:101AEC00FFF7B8FF012384F8463084F83E3084F8C1
:101AFC003F3084F8403084F8413084F8423084F828
:101B0C00433084F8443084F8453084F83D3000206C
:101B1C0010BD80F83C30FEF7E5FEDBE70120704796
:101B2C0040B310B5044690F83D30F3B1022384F86D
:101B3C003D30214651F8040BFFF78CFF012384F84C
:101B4C00463084F83E3084F83F3084F8403084F8D6
:101B5C00413084F8423084F8433084F8443084F8BF
:101B6C00453084F83D30002010BD80F83C30FFF744
:101B7C00AEFEDBE70120704730B4036A026A22F044
:101B8C00100202624468826922F4E6420D6842EA5D
:101B9C00052223F020038D6843EA05130E4DA8425D
:101BAC0009D00D4DA8420ED0446082614A68826310
:101BBC00036230BC704723F08003CD6843EA051301
:101BCC0023F04003EDE724F440644D6944EA8504B6
:101BDC008D6944EA8504E7E7002C014038B590F89C
:101BEC003C30012B66D004460D46012380F83C3076
:101BFC000C2A5AD8DFE802F0075959591B59595980
:101C0C003059595944000068FFF7B0FD22689369B8
:101C1C0043F0080393612268936923F004039361F2
:101C2C002268936929690B43936100203EE00068A8
:101C3C00FFF7A2FF2268936943F400639361226863
:101C4C00936923F48063936122689369296943EA59
:101C5C0001239361002029E00068FFF7B5FD22689D
:101C6C00D36943F00803D3612268D36923F00403DA
:101C7C00D3612268D36929690B43D361002015E035
:101C8C000068FFF7D3FD2268D36943F40063D36186
:101C9C002268D36923F48063D3612268D3692969EC
:101CAC0043EA0123D361002000E00120002384F8E3
:101CBC003C3038BD0220FCE710B4846824F47F4C1F
:101CCC0042EA03220A4342EA0C02826010BC7047CB
:101CDC0090F83C30012B78D010B50446012380F8E5
:101CEC003C30022380F83D300268936823F47F4334
:101CFC0023F0770393600B68602B4CD029D8402BD2
:101D0C0054D00CD9502B22D1CA6849680068FFF70F
:101D1C00B1FD50212068FFF7D2FD002005E0202BFB
:101D2C000DD009D9302B0AD00120012384F83D3085
:101D3C00002384F83C3010BD0BB1102B05D1194693
:101D4C002068FFF7BCFD0020EFE70120EDE7012044
:101D5C00EBE7B3F5805F34D0B3F5005F0CD1CB6803
:101D6C004A6889680068FFF7A7FF2268936843F404
:101D7C00804393600020D8E7702B24D1CB684A684D
:101D8C0089680068FFF798FF2268936843F077032F
:101D9C0093600020C9E7CA6849680068FFF77CFDBA
:101DAC0060212068FFF78BFD0020BEE7CA684968F8
:101DBC000068FFF75FFD40212068FFF780FD0020E1
:101DCC00B3E70020B1E70120AFE70220704701F034
:101DDC001F01012303FA01FC036A23EA0C030362CB
:101DEC00036A02FA01F10B430362704710B5044613
:101DFC000846B1B994F83E30DBB2013B18BF012361
:101E0C00002B7CD130BB022384F83E300C2878D8D0
:101E1C00DFE800F0307777775377777759777777F4
:101E2C005F00042908D008290DD094F84130DBB2AA
:101E3C00013B18BF0123E3E794F83F30DBB2013BD1
:101E4C0018BF0123DCE794F84030DBB2013B18BF2C
:101E5C000123D5E7042805D0082807D0022384F8ED
:101E6C004130D3E7022384F83F30CFE7022384F8D4
:101E7C004030CBE72268D36843F00203D3600122E1
:101E8C0001462068FFF7A3FF2368204A934226D01F
:101E9C0023681E4A934227D0B3F1804F24D0A2F579
:101EAC009432934220D002F5806293421CD01A687F
:101EBC0042F001021A60002024E02268D36843F04B
:101ECC000403D360DBE72268D36843F00803D360D4
:101EDC00D5E72268D36843F01003D360CFE75A6C80
:101EEC0042F400425A64D3E79A6802F00702062AC9
:101EFC0009D01A6842F001021A60002002E00120A9
:101F0C0000E0012010BD0020FCE700BF002C0140C8
:101F1C0038B505460C460C295FD8DFE801F0075EA2
:101F2C005E5E2A5E5E5E305E5E5E36000268D36880
:101F3C0023F00203D360002221462868FFF747FFF5
:101F4C002B68274A934226D02B68196A41F211124A
:101F5C00114208D1196A40F24442114203D11A6865
:101F6C0022F001021A602CBB012385F83E300020C0
:101F7C0034E00268D36823F00403D360DBE7026823
:101F8C00D36823F00803D360D5E70268D36823F045
:101F9C001003D360CFE7196A41F211121142D3D169
:101FAC00196A40F244421142CED15A6C22F40042DA
:101FBC005A64C9E7042C06D0082C09D0012385F8F3
:101FCC00413000200AE0012385F83F30002005E075
:101FDC00012385F84030002000E0012038BD00BF0F
:101FEC00002C014090F83C30012B2CD010B4012374
:101FFC0080F83C30022380F83D3003685A689C68B6
:10200C0022F0700C0A6842EA0C025A6003680F4A0C
:10201C0093420AD0B3F1804F07D0A2F59432934289
:10202C0003D002F58062934204D124F080044A6804
:10203C0014439C60012380F83D30002380F83C3031
:10204C00184610BC70470220704700BF002C01409E
:10205C0090F83C30012B22D0012380F83C30CB6827
:10206C0023F440738A68134323F480634A68134350
:10207C0023F400630A68134323F480530A6913435F
:10208C0023F400534A69134323F48043CA6913436E
:10209C0002685364002380F83C30184670470220D5
:1020AC00704770477047000070B50D4E0D4D761B94
:1020BC00B61006D0002455F8043B01349847A642CC
:1020CC00F9D1094E094D00F0D5F8761BB61006D0A3
:1020DC00002455F8043B01349847A642F9D170BD51
:1020EC007027000870270008782700087027000860
:1020FC00830730B548D0541E002A3FD00346CAB2DD
:10210C0001E0013C3AD303F8012B9D07F9D1032CD4
:10211C002DD9CDB245EA05250F2C45EA054536D912
:10212C00A4F1100222F00F0C03F1200EE6444FEA4A
:10213C00121C03F1100242E9045542E90255103217
:10214C007245F8D10CF1010214F00C0F03EB0212E2
:10215C0004F00F0C13D0ACF1040323F0030304338D
:10216C00134442F8045B9342FBD10CF003042CB1F2
:10217C00CAB21C4403F8012B9C42FBD130BD64460F
:10218C001346002CF4D1F9E703461446BFE71A4670
:10219C00A446E0E7024B13B1024800F005B87047C3
:1021AC0000000000C1210008002301461A46184611
:1021BC0000F01AB838B5084B084D5B1B9C1007D0C3
:1021CC00043B1D44013C55F804399847002CF9D1C7
:1021DC00BDE8384000F054B87C2700087827000888
:1021EC00704700BF704700BF2DE9F047DFF87CA0B7
:1021FC000646DAF8000098460F469146FFF7F0FFC6
:10220C001B4B1B68D3F8484124B365681F2D26DC93
:10221C005EB96B1C0235DAF80000636044F8257077
:10222C00FFF7E0FF0020BDE8F087012304EB8501F8
:10223C00C1F88890D4F88821AB401A43022EC4F818
:10224C008821C1F80881E4D1D4F88C211343C4F857
:10225C008C31DEE703F5A674C3F84841D5E7DAF80C
:10226C000000FFF7BFFF4FF0FF30DCE73804002021
:10227C006C270008F8B500BFF8BC08BC9E46704738
:0C228C00F8B500BFF8BC08BC9E467047C7
:10229800F1060000E5060000DA060000CE060000A0
:1022A800C2060000B6060000AB0600009F0600004C
:1022B80093060000870600007C06000070060000F8
:1022C80064060000590600004D06000041060000A3
:1022D800350600002A0600001E060000120600004F
:1022E80007060000FB050000EF050000E3050000FD
:1022F800D8050000CC050000C0050000B4050000AA
:10230800A90500009D050000910500008605000054
:102318007A0500006E050000620500005705000000
:102328004B0500003F0500003305000028050000AC
:102338001C0500001005000005050000F904000058
:10234800ED040000E1040000D6040000CA04000007
:10235800BE040000B2040000A70400009B040000B3
:102368008F04000084040000780400006C0400005E
:102378006004000055040000490400003D0400000A
:1023880032040000260400001A0400000E040000B5
:1023980003040000F7030000EB030000DF03000064
:1023A800D4030000C8030000BC030000B103000010
:1023B800A5030000990300008D03000082030000BC
:1023C800760300006A0300005E0300005303000068
:1023D800470300003B030000300300002403000013
:1023E800180300000C03000001030000F5020000C0
:1023F800E9020000DD020000D2020000C60200006F
:10240800BA020000AF020000A30200009702000019
:102418008B020000800200007402000068020000C5
:102428005D02000051020000450200003902000070
:102438002E02000022020000160200000A0200001C
:10244800FF010000F3010000E7010000DC010000CB
:10245800D0010000C4010000B8010000AD01000077
:10246800A101000095010000890100007E01000023
:1024780072010000660100005B0100004F010000CE
:1024880043010000370100002C010000200100007A
:102498001401000009010000FD000000F100000027
:1024A800E5000000DA000000CE000000C2000000D5
:1024B800B6000000AB0000009F0000009300000081
:1024C800880000007C00000070000000640000002C
:1024D800590000004D0000004100000035000000D8
:1024E8002A0000001E000000F1060000E9060000B6
:1024F800E1060000D9060000D1060000C906000068
:10250800C1060000B9060000B1060000A9060000D7
:10251800A106000099060000910600008906000047
:1025280081060000790600007106000069060000B7
:102538006106000059060000510600004906000027
:102548004106000039060000310600002906000097
:102558002106000019060000110600000906000007
:1025680001060000F9050000F1050000E90500007A
:10257800E1050000D9050000D1050000C9050000EB
:10258800C1050000B9050000B1050000A90500005B
:10259800A1050000990500009105000089050000CB
:1025A800810500007905000071050000690500003B
:1025B80061050000590500005105000049050000AB
:1025C800410500003905000031050000290500001B
:1025D800210500001905000011050000090500008B
:1025E80001050000F9040000F1040000E9040000FE
:1025F800E1040000D9040000D1040000C90400006F
:10260800C1040000B9040000B1040000A9040000DE
:10261800A10400009904000091040000890400004E
:1026280081040000790400007104000069040000BE
:10263800610400005904000051040000490400002E
:10264800410400003904000031040000290400009E
:10265800210400001904000011040000090400000E
:1026680001040000F9030000F1030000E903000081
:10267800E1030000D9030000D1030000C9030000F2
:10268800C1030000B9030000B1030000A903000062
:10269800A1030000990300009103000089030000D2
:1026A8008103000079030000710300006903000042
:1026B80061030000590300005103000049030000B2
:1026C8004103000039030000310300002903000022
:1026D8002103000019030000110300000903000092
:1026E80001030000F9020000F1020000E902000005
:1026F800E1020000D9020000D1020000C902000076
:10270800C1020000B9020000B1020000A9020000E5
:10271800A102000099020000910200008902000055
:1027280081020000790200007102000069020000C5
:102738006102000059020000510200004902000035
:102748000000000000000000010203040607080959
:1027580002030405060708090A0B0C0D0E0F1010DA
:08276800010200001000002036
:08277000A1210008310100085D
:042778000D01000847
:10277C000024F40001000000100000000000000024
:10278C0000000000FC02002064030020CC030020A9
:10279C00000000000000000000000000000000002D
:1027AC00000000000000000000000000000000001D
:1027BC00000000000000000000000000000000000D
:1027CC0000000000000000000000000000000000FD
:1027DC0000000000000000000000000000000000ED
:1027EC0000000000000000000000000000000000DD
:1027FC0000000000000000000000000000000000CD
:10280C0000000000000000000000000000000000BC
:10281C0000000000000000000000000000000000AC
:10282C00000000000000000001000000000000009B
:10283C000E33CDAB34126DE6ECDE05000B00000060
:10284C00000000000000000000000000000000007C
:10285C00000000000000000000000000000000006C
:10286C00000000000000000000000000000000005C
:10287C00000000000000000000000000000000004C
:0C2BAC000000000000000000F004002009
:0400000508000A9550
:00000001FF
